{
  "transactions": [
    {
      "hash": "0xb4b38a0d64ec8733b4283920cca13336af49b479dfe9a3716c3ada8ef69c53e7",
      "transactionType": "CALL",
      "contractName": null,
      "contractAddress": "0xe4dc4afe063491efb3b5930118f8937bd1c8ef59",
      "function": "setCallbackGasLimit(uint256,uint64)",
      "arguments": [
        "11",
        "5000000"
      ],
      "transaction": {
        "from": "0x6119cb84698758bbb9fe9257bf95ecd7ea8adf1b",
        "to": "0xe4dc4afe063491efb3b5930118f8937bd1c8ef59",
        "gas": "0xf838",
        "value": "0x0",
        "input": "0x813d1e15000000000000000000000000000000000000000000000000000000000000000b00000000000000000000000000000000000000000000000000000000004c4b40",
        "nonce": "0x1",
        "chainId": "0xaa37dc"
      },
      "additionalContracts": [],
      "isFixedGasLimit": false
    },
    {
      "hash": "0xb657b8b13269a85d6099c8f70f3ea12b3007a0d46bcdc83642b5e2843dd9dd20",
      "transactionType": "CALL",
      "contractName": null,
      "contractAddress": "0xe4dc4afe063491efb3b5930118f8937bd1c8ef59",
      "function": "calculateAIResult(uint256,string)",
      "arguments": [
        "11",
        "\"IMPORTANT: Please answer only with one word - name of protocol AAVE or COMPOUND using capital letters. I want to forecast the supply rate changes in the Aave and Compound protocol based on the following data. Please provide a prediction for the next 3 days. In both case we compare indicators for USDC tokenAAVE: Total Liquidity / Total Supply: 41,350,407,462Utilization Rate: 23.55%, Total Stable Debt: 0, Total Variable Debt: 9,738,414,427, Supply Rate: 0.33%, Variable Borrow Rate: 1.56%, Stable Borrow Rate: 8.56%, Average Stable Borrow Rate: 0.00%Based on these data, please provide an estimate of the future supply rate over the next 3 days and generate prompt only with result which option is better.\""
      ],
      "transaction": {
        "from": "0x6119cb84698758bbb9fe9257bf95ecd7ea8adf1b",
        "to": "0xe4dc4afe063491efb3b5930118f8937bd1c8ef59",
        "gas": "0x28c567",
        "value": "0x16345785d8a0000",
        "input": "0xfac5d7e1000000000000000000000000000000000000000000000000000000000000000b000000000000000000000000000000000000000000000000000000000000004000000000000000000000000000000000000000000000000000000000000002c3494d504f5254414e543a20506c6561736520616e73776572206f6e6c792077697468206f6e6520776f7264202d206e616d65206f662070726f746f636f6c2041415645206f7220434f4d504f554e44207573696e67206361706974616c206c6574746572732e20492077616e7420746f20666f7265636173742074686520737570706c792072617465206368616e67657320696e20746865204161766520616e6420436f6d706f756e642070726f746f636f6c206261736564206f6e2074686520666f6c6c6f77696e6720646174612e20506c656173652070726f7669646520612070726564696374696f6e20666f7220746865206e657874203320646179732e20496e20626f7468206361736520776520636f6d7061726520696e64696361746f727320666f72205553444320746f6b656e414156453a20546f74616c204c6971756964697479202f20546f74616c20537570706c793a2034312c3335302c3430372c3436325574696c697a6174696f6e20526174653a2032332e3535252c20546f74616c20537461626c6520446562743a20302c20546f74616c205661726961626c6520446562743a20392c3733382c3431342c3432372c20537570706c7920526174653a20302e3333252c205661726961626c6520426f72726f7720526174653a20312e3536252c20537461626c6520426f72726f7720526174653a20382e3536252c204176657261676520537461626c6520426f72726f7720526174653a20302e3030254261736564206f6e20746865736520646174612c20706c656173652070726f7669646520616e20657374696d617465206f66207468652066757475726520737570706c792072617465206f76657220746865206e6578742033206461797320616e642067656e65726174652070726f6d7074206f6e6c79207769746820726573756c74207768696368206f7074696f6e206973206265747465722e0000000000000000000000000000000000000000000000000000000000",
        "nonce": "0x2",
        "chainId": "0xaa37dc"
      },
      "additionalContracts": [],
      "isFixedGasLimit": false
    }
  ],
  "receipts": [
    {
      "status": "0x1",
      "cumulativeGasUsed": "0x15f0c",
      "logs": [],
      "logsBloom": "0x00000000000000000000000000000000000000000000000000000000000000000000000000000000000000000000000000000000000000000000000000000000000000000000000000000000000000000000000000000000000000000000000000000000000000000000000000000000000000000000000000000000000000000000000000000000000000000000000000000000000000000000000000000000000000000000000000000000000000000000000000000000000000000000000000000000000000000000000000000000000000000000000000000000000000000000000000000000000000000000000000000000000000000000000000000000",
      "type": "0x2",
      "transactionHash": "0xb4b38a0d64ec8733b4283920cca13336af49b479dfe9a3716c3ada8ef69c53e7",
      "transactionIndex": "0x1",
      "blockHash": "0xf02d65fde3b724a9a01b671d670cd4f3ac4b0eb471dd51682ac06a29a5a1a683",
      "blockNumber": "0x11601ce",
      "gasUsed": "0xb3b5",
      "effectiveGasPrice": "0xf6a4e",
      "from": "0x6119cb84698758bbb9fe9257bf95ecd7ea8adf1b",
      "to": "0xe4dc4afe063491efb3b5930118f8937bd1c8ef59",
      "contractAddress": null,
      "l1BaseFeeScalar": "0x1db0",
      "l1BlobBaseFee": "0x44c5",
      "l1BlobBaseFeeScalar": "0xd2730",
      "l1Fee": "0x179485167a6d",
      "l1GasPrice": "0x1f06c9f1a27",
      "l1GasUsed": "0x640"
    },
    {
      "status": "0x1",
      "cumulativeGasUsed": "0x1ee38b",
      "logs": [
        {
          "address": "0x0a0f4321214bb6c7811dd8a71cf587bdaf03f0a0",
          "topics": [
            "0x849aa5adc3bf6a75cb08afbf31d88d1528c274e5d84e3d4355d23d8e9ebd649b",
            "0x000000000000000000000000e4dc4afe063491efb3b5930118f8937bd1c8ef59",
            "0x0000000000000000000000000000000000000000000000000000000000000152"
          ],
          "data": "0x000000000000000000000000000000000000000000000000000000000000000b00000000000000000000000000000000000000000000000000000000000000a0000000000000000000000000e4dc4afe063491efb3b5930118f8937bd1c8ef5900000000000000000000000000000000000000000000000000000000004c4b4000000000000000000000000000000000000000000000000000000000000003a000000000000000000000000000000000000000000000000000000000000002c3494d504f5254414e543a20506c6561736520616e73776572206f6e6c792077697468206f6e6520776f7264202d206e616d65206f662070726f746f636f6c2041415645206f7220434f4d504f554e44207573696e67206361706974616c206c6574746572732e20492077616e7420746f20666f7265636173742074686520737570706c792072617465206368616e67657320696e20746865204161766520616e6420436f6d706f756e642070726f746f636f6c206261736564206f6e2074686520666f6c6c6f77696e6720646174612e20506c656173652070726f7669646520612070726564696374696f6e20666f7220746865206e657874203320646179732e20496e20626f7468206361736520776520636f6d7061726520696e64696361746f727320666f72205553444320746f6b656e414156453a20546f74616c204c6971756964697479202f20546f74616c20537570706c793a2034312c3335302c3430372c3436325574696c697a6174696f6e20526174653a2032332e3535252c20546f74616c20537461626c6520446562743a20302c20546f74616c205661726961626c6520446562743a20392c3733382c3431342c3432372c20537570706c7920526174653a20302e3333252c205661726961626c6520426f72726f7720526174653a20312e3536252c20537461626c6520426f72726f7720526174653a20382e3536252c204176657261676520537461626c6520426f72726f7720526174653a20302e3030254261736564206f6e20746865736520646174612c20706c656173652070726f7669646520616e20657374696d617465206f66207468652066757475726520737570706c792072617465206f76657220746865206e6578742033206461797320616e642067656e65726174652070726f6d7074206f6e6c79207769746820726573756c74207768696368206f7074696f6e206973206265747465722e00000000000000000000000000000000000000000000000000000000000000000000000000000000000000000000000000000000000000000000000000",
          "blockHash": "0xf02d65fde3b724a9a01b671d670cd4f3ac4b0eb471dd51682ac06a29a5a1a683",
          "blockNumber": "0x11601ce",
          "transactionHash": "0xb657b8b13269a85d6099c8f70f3ea12b3007a0d46bcdc83642b5e2843dd9dd20",
          "transactionIndex": "0x2",
          "logIndex": "0x0",
          "removed": false
        },
        {
          "address": "0xe4dc4afe063491efb3b5930118f8937bd1c8ef59",
          "topics": [
            "0xa0faead83d70148ae18b694377f9bef079251342ab90e14af0f9ef68b891269f"
          ],
          "data": "0x00000000000000000000000000000000000000000000000000000000000001520000000000000000000000006119cb84698758bbb9fe9257bf95ecd7ea8adf1b000000000000000000000000000000000000000000000000000000000000000b000000000000000000000000000000000000000000000000000000000000008000000000000000000000000000000000000000000000000000000000000002c3494d504f5254414e543a20506c6561736520616e73776572206f6e6c792077697468206f6e6520776f7264202d206e616d65206f662070726f746f636f6c2041415645206f7220434f4d504f554e44207573696e67206361706974616c206c6574746572732e20492077616e7420746f20666f7265636173742074686520737570706c792072617465206368616e67657320696e20746865204161766520616e6420436f6d706f756e642070726f746f636f6c206261736564206f6e2074686520666f6c6c6f77696e6720646174612e20506c656173652070726f7669646520612070726564696374696f6e20666f7220746865206e657874203320646179732e20496e20626f7468206361736520776520636f6d7061726520696e64696361746f727320666f72205553444320746f6b656e414156453a20546f74616c204c6971756964697479202f20546f74616c20537570706c793a2034312c3335302c3430372c3436325574696c697a6174696f6e20526174653a2032332e3535252c20546f74616c20537461626c6520446562743a20302c20546f74616c205661726961626c6520446562743a20392c3733382c3431342c3432372c20537570706c7920526174653a20302e3333252c205661726961626c6520426f72726f7720526174653a20312e3536252c20537461626c6520426f72726f7720526174653a20382e3536252c204176657261676520537461626c6520426f72726f7720526174653a20302e3030254261736564206f6e20746865736520646174612c20706c656173652070726f7669646520616e20657374696d617465206f66207468652066757475726520737570706c792072617465206f76657220746865206e6578742033206461797320616e642067656e65726174652070726f6d7074206f6e6c79207769746820726573756c74207768696368206f7074696f6e206973206265747465722e0000000000000000000000000000000000000000000000000000000000",
          "blockHash": "0xf02d65fde3b724a9a01b671d670cd4f3ac4b0eb471dd51682ac06a29a5a1a683",
          "blockNumber": "0x11601ce",
          "transactionHash": "0xb657b8b13269a85d6099c8f70f3ea12b3007a0d46bcdc83642b5e2843dd9dd20",
          "transactionIndex": "0x2",
          "logIndex": "0x1",
          "removed": false
        }
      ],
      "logsBloom": "0x00000000000000000000000000000000000000000000000000000000000000100000000000000000000000080000000000000000000000000000000004000000000000000000000000000000040000000000000000000000000000000000000000000000000000000000080000000800000000000000400040000000000000000000000000000000000000000000000000000000000008000000000000000000000000000000000000000000000000000000000000000001000040000000000000000200000000000000000000000001000000000000000000000000000000000000200000000000000000021000000008000000000000000000400000000000",
      "type": "0x2",
      "transactionHash": "0xb657b8b13269a85d6099c8f70f3ea12b3007a0d46bcdc83642b5e2843dd9dd20",
      "transactionIndex": "0x2",
      "blockHash": "0xf02d65fde3b724a9a01b671d670cd4f3ac4b0eb471dd51682ac06a29a5a1a683",
      "blockNumber": "0x11601ce",
      "gasUsed": "0x1d847f",
      "effectiveGasPrice": "0xf6a4e",
      "from": "0x6119cb84698758bbb9fe9257bf95ecd7ea8adf1b",
      "to": "0xe4dc4afe063491efb3b5930118f8937bd1c8ef59",
      "contractAddress": null,
      "l1BaseFeeScalar": "0x1db0",
      "l1BlobBaseFee": "0x44c5",
      "l1BlobBaseFeeScalar": "0xd2730",
      "l1Fee": "0x806d2517be55",
      "l1GasPrice": "0x1f06c9f1a27",
      "l1GasUsed": "0x220a"
    }
  ],
  "libraries": [],
  "pending": [],
  "returns": {},
  "timestamp": 1728241487,
  "chain": 11155420,
  "commit": "e793618"
}