{
  "transactions": [
    {
      "hash": "0x9dbc36eac0db198b2265f68c54a1764868a5112cce8ff99266c71d02c5952e36",
      "transactionType": "CALL",
      "contractName": null,
      "contractAddress": "0xc1a146358a8c011ac8419aea7ba6d05966cc1774",
      "function": "setCallbackGasLimit(uint256,uint64)",
      "arguments": [
        "11",
        "5000000"
      ],
      "transaction": {
        "from": "0x6119cb84698758bbb9fe9257bf95ecd7ea8adf1b",
        "to": "0xc1a146358a8c011ac8419aea7ba6d05966cc1774",
        "gas": "0x9545",
        "value": "0x0",
        "input": "0x813d1e15000000000000000000000000000000000000000000000000000000000000000b00000000000000000000000000000000000000000000000000000000004c4b40",
        "nonce": "0x12",
        "chainId": "0xaa36a7"
      },
      "additionalContracts": [],
      "isFixedGasLimit": false
    },
    {
      "hash": "0x516a91bbdb1fab8565d8ae83df1b6ec24c306c37479a5125aab5673704bebcb7",
      "transactionType": "CALL",
      "contractName": null,
      "contractAddress": "0xc1a146358a8c011ac8419aea7ba6d05966cc1774",
      "function": "calculateAIResult(uint256,string)",
      "arguments": [
        "11",
        "\"IMPORTANT: Please answer only with one word - name of protocol AAVE or COMPOUND using capital letters. I want to forecast the supply rate changes in the Aave and Compound protocol based on the following data. Please provide a prediction for the next 3 days. In both case we compare indicators for USDC tokenAAVE: Total Liquidity / Total Supply: 27,120,410,463,024Utilization Rate: 99.19%, Total Stable Debt: 3,465,880,846,109, Total Variable Debt: 23,876,395,354,670, Supply Rate: 51.06%, Variable Borrow Rate: 63.94%, Stable Borrow Rate: 65.44%, Average Stable Borrow Rate: 7.13%_____________COMPOUND: Total Supply: 60,453,564,636, Total Borrow: 60,037,814,018, Utilization: 99.30%, Supply Rate: 0.00%, Borrow Rate: 0.00%Based on these data, please provide an estimate of the future supply rate over the next 3 days and generate prompt only with result which option is better.\""
      ],
      "transaction": {
        "from": "0x6119cb84698758bbb9fe9257bf95ecd7ea8adf1b",
        "to": "0xc1a146358a8c011ac8419aea7ba6d05966cc1774",
        "gas": "0x22dd89",
        "value": "0x71f440e52a9ede80",
        "input": "0xfac5d7e1000000000000000000000000000000000000000000000000000000000000000b0000000000000000000000000000000000000000000000000000000000000040000000000000000000000000000000000000000000000000000000000000036d494d504f5254414e543a20506c6561736520616e73776572206f6e6c792077697468206f6e6520776f7264202d206e616d65206f662070726f746f636f6c2041415645206f7220434f4d504f554e44207573696e67206361706974616c206c6574746572732e20492077616e7420746f20666f7265636173742074686520737570706c792072617465206368616e67657320696e20746865204161766520616e6420436f6d706f756e642070726f746f636f6c206261736564206f6e2074686520666f6c6c6f77696e6720646174612e20506c656173652070726f7669646520612070726564696374696f6e20666f7220746865206e657874203320646179732e20496e20626f7468206361736520776520636f6d7061726520696e64696361746f727320666f72205553444320746f6b656e414156453a20546f74616c204c6971756964697479202f20546f74616c20537570706c793a2032372c3132302c3431302c3436332c3032345574696c697a6174696f6e20526174653a2039392e3139252c20546f74616c20537461626c6520446562743a20332c3436352c3838302c3834362c3130392c20546f74616c205661726961626c6520446562743a2032332c3837362c3339352c3335342c3637302c20537570706c7920526174653a2035312e3036252c205661726961626c6520426f72726f7720526174653a2036332e3934252c20537461626c6520426f72726f7720526174653a2036352e3434252c204176657261676520537461626c6520426f72726f7720526174653a20372e3133255f5f5f5f5f5f5f5f5f5f5f5f5f434f4d504f554e443a20546f74616c20537570706c793a2036302c3435332c3536342c3633362c20546f74616c20426f72726f773a2036302c3033372c3831342c3031382c205574696c697a6174696f6e3a2039392e3330252c20537570706c7920526174653a20302e3030252c20426f72726f7720526174653a20302e3030254261736564206f6e20746865736520646174612c20706c656173652070726f7669646520616e20657374696d617465206f66207468652066757475726520737570706c792072617465206f76657220746865206e6578742033206461797320616e642067656e65726174652070726f6d7074206f6e6c79207769746820726573756c74207768696368206f7074696f6e206973206265747465722e00000000000000000000000000000000000000",
        "nonce": "0x13",
        "chainId": "0xaa36a7"
      },
      "additionalContracts": [],
      "isFixedGasLimit": false
    }
  ],
  "receipts": [
    {
      "status": "0x1",
      "cumulativeGasUsed": "0x85a90d",
      "logs": [],
      "logsBloom": "0x00000000000000000000000000000000000000000000000000000000000000000000000000000000000000000000000000000000000000000000000000000000000000000000000000000000000000000000000000000000000000000000000000000000000000000000000000000000000000000000000000000000000000000000000000000000000000000000000000000000000000000000000000000000000000000000000000000000000000000000000000000000000000000000000000000000000000000000000000000000000000000000000000000000000000000000000000000000000000000000000000000000000000000000000000000000",
      "type": "0x2",
      "transactionHash": "0x9dbc36eac0db198b2265f68c54a1764868a5112cce8ff99266c71d02c5952e36",
      "transactionIndex": "0x10",
      "blockHash": "0xaa1bee9fa792b3fff6be594655530d01844f82ceccecf1b4ce304cbc7151bc9f",
      "blockNumber": "0x682bae",
      "gasUsed": "0x6611",
      "effectiveGasPrice": "0x2303306a29c",
      "from": "0x6119cb84698758bbb9fe9257bf95ecd7ea8adf1b",
      "to": "0xc1a146358a8c011ac8419aea7ba6d05966cc1774",
      "contractAddress": null
    },
    {
      "status": "0x1",
      "cumulativeGasUsed": "0x9ee6fb",
      "logs": [
        {
          "address": "0x0a0f4321214bb6c7811dd8a71cf587bdaf03f0a0",
          "topics": [
            "0x849aa5adc3bf6a75cb08afbf31d88d1528c274e5d84e3d4355d23d8e9ebd649b",
            "0x000000000000000000000000c1a146358a8c011ac8419aea7ba6d05966cc1774",
            "0x00000000000000000000000000000000000000000000000000000000000045a5"
          ],
          "data": "0x000000000000000000000000000000000000000000000000000000000000000b00000000000000000000000000000000000000000000000000000000000000a0000000000000000000000000c1a146358a8c011ac8419aea7ba6d05966cc177400000000000000000000000000000000000000000000000000000000004c4b400000000000000000000000000000000000000000000000000000000000000440000000000000000000000000000000000000000000000000000000000000036d494d504f5254414e543a20506c6561736520616e73776572206f6e6c792077697468206f6e6520776f7264202d206e616d65206f662070726f746f636f6c2041415645206f7220434f4d504f554e44207573696e67206361706974616c206c6574746572732e20492077616e7420746f20666f7265636173742074686520737570706c792072617465206368616e67657320696e20746865204161766520616e6420436f6d706f756e642070726f746f636f6c206261736564206f6e2074686520666f6c6c6f77696e6720646174612e20506c656173652070726f7669646520612070726564696374696f6e20666f7220746865206e657874203320646179732e20496e20626f7468206361736520776520636f6d7061726520696e64696361746f727320666f72205553444320746f6b656e414156453a20546f74616c204c6971756964697479202f20546f74616c20537570706c793a2032372c3132302c3431302c3436332c3032345574696c697a6174696f6e20526174653a2039392e3139252c20546f74616c20537461626c6520446562743a20332c3436352c3838302c3834362c3130392c20546f74616c205661726961626c6520446562743a2032332c3837362c3339352c3335342c3637302c20537570706c7920526174653a2035312e3036252c205661726961626c6520426f72726f7720526174653a2036332e3934252c20537461626c6520426f72726f7720526174653a2036352e3434252c204176657261676520537461626c6520426f72726f7720526174653a20372e3133255f5f5f5f5f5f5f5f5f5f5f5f5f434f4d504f554e443a20546f74616c20537570706c793a2036302c3435332c3536342c3633362c20546f74616c20426f72726f773a2036302c3033372c3831342c3031382c205574696c697a6174696f6e3a2039392e3330252c20537570706c7920526174653a20302e3030252c20426f72726f7720526174653a20302e3030254261736564206f6e20746865736520646174612c20706c656173652070726f7669646520616e20657374696d617465206f66207468652066757475726520737570706c792072617465206f76657220746865206e6578742033206461797320616e642067656e65726174652070726f6d7074206f6e6c79207769746820726573756c74207768696368206f7074696f6e206973206265747465722e000000000000000000000000000000000000000000000000000000000000000000000000000000000000000000000000000000",
          "blockHash": "0xaa1bee9fa792b3fff6be594655530d01844f82ceccecf1b4ce304cbc7151bc9f",
          "blockNumber": "0x682bae",
          "transactionHash": "0x516a91bbdb1fab8565d8ae83df1b6ec24c306c37479a5125aab5673704bebcb7",
          "transactionIndex": "0x11",
          "logIndex": "0x1e",
          "removed": false
        },
        {
          "address": "0xc1a146358a8c011ac8419aea7ba6d05966cc1774",
          "topics": [
            "0xa0faead83d70148ae18b694377f9bef079251342ab90e14af0f9ef68b891269f"
          ],
          "data": "0x00000000000000000000000000000000000000000000000000000000000045a50000000000000000000000006119cb84698758bbb9fe9257bf95ecd7ea8adf1b000000000000000000000000000000000000000000000000000000000000000b0000000000000000000000000000000000000000000000000000000000000080000000000000000000000000000000000000000000000000000000000000036d494d504f5254414e543a20506c6561736520616e73776572206f6e6c792077697468206f6e6520776f7264202d206e616d65206f662070726f746f636f6c2041415645206f7220434f4d504f554e44207573696e67206361706974616c206c6574746572732e20492077616e7420746f20666f7265636173742074686520737570706c792072617465206368616e67657320696e20746865204161766520616e6420436f6d706f756e642070726f746f636f6c206261736564206f6e2074686520666f6c6c6f77696e6720646174612e20506c656173652070726f7669646520612070726564696374696f6e20666f7220746865206e657874203320646179732e20496e20626f7468206361736520776520636f6d7061726520696e64696361746f727320666f72205553444320746f6b656e414156453a20546f74616c204c6971756964697479202f20546f74616c20537570706c793a2032372c3132302c3431302c3436332c3032345574696c697a6174696f6e20526174653a2039392e3139252c20546f74616c20537461626c6520446562743a20332c3436352c3838302c3834362c3130392c20546f74616c205661726961626c6520446562743a2032332c3837362c3339352c3335342c3637302c20537570706c7920526174653a2035312e3036252c205661726961626c6520426f72726f7720526174653a2036332e3934252c20537461626c6520426f72726f7720526174653a2036352e3434252c204176657261676520537461626c6520426f72726f7720526174653a20372e3133255f5f5f5f5f5f5f5f5f5f5f5f5f434f4d504f554e443a20546f74616c20537570706c793a2036302c3435332c3536342c3633362c20546f74616c20426f72726f773a2036302c3033372c3831342c3031382c205574696c697a6174696f6e3a2039392e3330252c20537570706c7920526174653a20302e3030252c20426f72726f7720526174653a20302e3030254261736564206f6e20746865736520646174612c20706c656173652070726f7669646520616e20657374696d617465206f66207468652066757475726520737570706c792072617465206f76657220746865206e6578742033206461797320616e642067656e65726174652070726f6d7074206f6e6c79207769746820726573756c74207768696368206f7074696f6e206973206265747465722e00000000000000000000000000000000000000",
          "blockHash": "0xaa1bee9fa792b3fff6be594655530d01844f82ceccecf1b4ce304cbc7151bc9f",
          "blockNumber": "0x682bae",
          "transactionHash": "0x516a91bbdb1fab8565d8ae83df1b6ec24c306c37479a5125aab5673704bebcb7",
          "transactionIndex": "0x11",
          "logIndex": "0x1f",
          "removed": false
        }
      ],
      "logsBloom": "0x00000000000000002000000800000000800000000000000000000000000000100000000000000000000000080000000000002000000000000000000000000000000000000000000000000000200000000000000000000400000000000000000000000000000000000000080008000800000000000000000000000000000000000000000000000000000000000000000000000000000008000000000000000000000000000000000000000000000000000000000000000000000042000000000000000200000000000000000000000000000000000000000000000000000000020000200000000000000000000000000000000000000000000000400000000000",
      "type": "0x2",
      "transactionHash": "0x516a91bbdb1fab8565d8ae83df1b6ec24c306c37479a5125aab5673704bebcb7",
      "transactionIndex": "0x11",
      "blockHash": "0xaa1bee9fa792b3fff6be594655530d01844f82ceccecf1b4ce304cbc7151bc9f",
      "blockNumber": "0x682bae",
      "gasUsed": "0x193dee",
      "effectiveGasPrice": "0x2303306a29c",
      "from": "0x6119cb84698758bbb9fe9257bf95ecd7ea8adf1b",
      "to": "0xc1a146358a8c011ac8419aea7ba6d05966cc1774",
      "contractAddress": null
    }
  ],
  "libraries": [],
  "pending": [],
  "returns": {},
  "timestamp": 1728232995,
  "chain": 11155111,
  "commit": "e793618"
}