{
  "transactions": [
    {
      "hash": "0x66ff655776e66779735849fca94a9c54dc2590ba8113fba9521cc1e38ba1c700",
      "transactionType": "CALL",
      "contractName": null,
      "contractAddress": "0xc1a146358a8c011ac8419aea7ba6d05966cc1774",
      "function": "setCallbackGasLimit(uint256,uint64)",
      "arguments": [
        "11",
        "5000000"
      ],
      "transaction": {
        "from": "0x6119cb84698758bbb9fe9257bf95ecd7ea8adf1b",
        "to": "0xc1a146358a8c011ac8419aea7ba6d05966cc1774",
        "gas": "0xf858",
        "value": "0x0",
        "input": "0x813d1e15000000000000000000000000000000000000000000000000000000000000000b00000000000000000000000000000000000000000000000000000000004c4b40",
        "nonce": "0x10",
        "chainId": "0xaa36a7"
      },
      "additionalContracts": [],
      "isFixedGasLimit": false
    },
    {
      "hash": "0xd42664db4dc15b7f57f55d254383dc36656d62650fe5079224c873eaab61b86d",
      "transactionType": "CALL",
      "contractName": null,
      "contractAddress": "0xc1a146358a8c011ac8419aea7ba6d05966cc1774",
      "function": "calculateAIResult(uint256,string)",
      "arguments": [
        "11",
        "\"I want to forecast the supply rate changes in the Aave and Compound protocol based on the following data. Please provide a prediction for the next 3 days. In both case we compare indicators for WETH tokenAAVE: Total Liquidity: 1238250994268796, Total Stable Debt: 587582868352, Total Variable Debt: 1259030609796207, Liquidity Rate: 575637677093272328187001893, Variable Borrow Rate: 639843009513245971455150694, Stable Borrow Rate: 654843009513245971455150694, Average Stable Borrow Rate: 149452507943036629371616514_____________. COMPOUND: Total Supply: 18899836377652933425, Total Borrow: 6081101687361573406, Utilization: 321743120600565391, Supply Rate: 172490209, Borrow Rate: 842978029Based on these data, please provide an estimate of the future supply rate over the next 3 days and generate prompt only with result which option is better. Please answer only with name of protocol. I mean AAVE or COMPOUND\""
      ],
      "transaction": {
        "from": "0x6119cb84698758bbb9fe9257bf95ecd7ea8adf1b",
        "to": "0xc1a146358a8c011ac8419aea7ba6d05966cc1774",
        "gas": "0x23d443",
        "value": "0x1f161421c8e0000",
        "input": "0xfac5d7e1000000000000000000000000000000000000000000000000000000000000000b00000000000000000000000000000000000000000000000000000000000000400000000000000000000000000000000000000000000000000000000000000391492077616e7420746f20666f7265636173742074686520737570706c792072617465206368616e67657320696e20746865204161766520616e6420436f6d706f756e642070726f746f636f6c206261736564206f6e2074686520666f6c6c6f77696e6720646174612e20506c656173652070726f7669646520612070726564696374696f6e20666f7220746865206e657874203320646179732e20496e20626f7468206361736520776520636f6d7061726520696e64696361746f727320666f72205745544820746f6b656e414156453a20546f74616c204c69717569646974793a20313233383235303939343236383739362c20546f74616c20537461626c6520446562743a203538373538323836383335322c20546f74616c205661726961626c6520446562743a20313235393033303630393739363230372c204c697175696469747920526174653a203537353633373637373039333237323332383138373030313839332c205661726961626c6520426f72726f7720526174653a203633393834333030393531333234353937313435353135303639342c20537461626c6520426f72726f7720526174653a203635343834333030393531333234353937313435353135303639342c204176657261676520537461626c6520426f72726f7720526174653a203134393435323530373934333033363632393337313631363531345f5f5f5f5f5f5f5f5f5f5f5f5f2e20434f4d504f554e443a20546f74616c20537570706c793a2031383839393833363337373635323933333432352c20546f74616c20426f72726f773a20363038313130313638373336313537333430362c205574696c697a6174696f6e3a203332313734333132303630303536353339312c20537570706c7920526174653a203137323439303230392c20426f72726f7720526174653a203834323937383032394261736564206f6e20746865736520646174612c20706c656173652070726f7669646520616e20657374696d617465206f66207468652066757475726520737570706c792072617465206f76657220746865206e6578742033206461797320616e642067656e65726174652070726f6d7074206f6e6c79207769746820726573756c74207768696368206f7074696f6e206973206265747465722e20506c6561736520616e73776572206f6e6c792077697468206e616d65206f662070726f746f636f6c2e2049206d65616e2041415645206f7220434f4d504f554e44000000000000000000000000000000",
        "nonce": "0x11",
        "chainId": "0xaa36a7"
      },
      "additionalContracts": [],
      "isFixedGasLimit": false
    }
  ],
  "receipts": [
    {
      "status": "0x1",
      "cumulativeGasUsed": "0x882b61",
      "logs": [],
      "logsBloom": "0x00000000000000000000000000000000000000000000000000000000000000000000000000000000000000000000000000000000000000000000000000000000000000000000000000000000000000000000000000000000000000000000000000000000000000000000000000000000000000000000000000000000000000000000000000000000000000000000000000000000000000000000000000000000000000000000000000000000000000000000000000000000000000000000000000000000000000000000000000000000000000000000000000000000000000000000000000000000000000000000000000000000000000000000000000000000",
      "type": "0x2",
      "transactionHash": "0x66ff655776e66779735849fca94a9c54dc2590ba8113fba9521cc1e38ba1c700",
      "transactionIndex": "0x34",
      "blockHash": "0xf64b4e827b89a8c6daac2fc00020b76679bd27880457a8520718f73a0a7e8245",
      "blockNumber": "0x66f4cc",
      "gasUsed": "0xb3cd",
      "effectiveGasPrice": "0x25bdeccd5",
      "from": "0x6119cb84698758bbb9fe9257bf95ecd7ea8adf1b",
      "to": "0xc1a146358a8c011ac8419aea7ba6d05966cc1774",
      "contractAddress": null
    },
    {
      "status": "0x1",
      "cumulativeGasUsed": "0xa21bef",
      "logs": [
        {
          "address": "0x0a0f4321214bb6c7811dd8a71cf587bdaf03f0a0",
          "topics": [
            "0x849aa5adc3bf6a75cb08afbf31d88d1528c274e5d84e3d4355d23d8e9ebd649b",
            "0x000000000000000000000000c1a146358a8c011ac8419aea7ba6d05966cc1774",
            "0x000000000000000000000000000000000000000000000000000000000000436f"
          ],
          "data": "0x000000000000000000000000000000000000000000000000000000000000000b00000000000000000000000000000000000000000000000000000000000000a0000000000000000000000000c1a146358a8c011ac8419aea7ba6d05966cc177400000000000000000000000000000000000000000000000000000000004c4b4000000000000000000000000000000000000000000000000000000000000004600000000000000000000000000000000000000000000000000000000000000391492077616e7420746f20666f7265636173742074686520737570706c792072617465206368616e67657320696e20746865204161766520616e6420436f6d706f756e642070726f746f636f6c206261736564206f6e2074686520666f6c6c6f77696e6720646174612e20506c656173652070726f7669646520612070726564696374696f6e20666f7220746865206e657874203320646179732e20496e20626f7468206361736520776520636f6d7061726520696e64696361746f727320666f72205745544820746f6b656e414156453a20546f74616c204c69717569646974793a20313233383235303939343236383739362c20546f74616c20537461626c6520446562743a203538373538323836383335322c20546f74616c205661726961626c6520446562743a20313235393033303630393739363230372c204c697175696469747920526174653a203537353633373637373039333237323332383138373030313839332c205661726961626c6520426f72726f7720526174653a203633393834333030393531333234353937313435353135303639342c20537461626c6520426f72726f7720526174653a203635343834333030393531333234353937313435353135303639342c204176657261676520537461626c6520426f72726f7720526174653a203134393435323530373934333033363632393337313631363531345f5f5f5f5f5f5f5f5f5f5f5f5f2e20434f4d504f554e443a20546f74616c20537570706c793a2031383839393833363337373635323933333432352c20546f74616c20426f72726f773a20363038313130313638373336313537333430362c205574696c697a6174696f6e3a203332313734333132303630303536353339312c20537570706c7920526174653a203137323439303230392c20426f72726f7720526174653a203834323937383032394261736564206f6e20746865736520646174612c20706c656173652070726f7669646520616e20657374696d617465206f66207468652066757475726520737570706c792072617465206f76657220746865206e6578742033206461797320616e642067656e65726174652070726f6d7074206f6e6c79207769746820726573756c74207768696368206f7074696f6e206973206265747465722e20506c6561736520616e73776572206f6e6c792077697468206e616d65206f662070726f746f636f6c2e2049206d65616e2041415645206f7220434f4d504f554e440000000000000000000000000000000000000000000000000000000000000000000000000000000000000000000000",
          "blockHash": "0xf64b4e827b89a8c6daac2fc00020b76679bd27880457a8520718f73a0a7e8245",
          "blockNumber": "0x66f4cc",
          "transactionHash": "0xd42664db4dc15b7f57f55d254383dc36656d62650fe5079224c873eaab61b86d",
          "transactionIndex": "0x35",
          "logIndex": "0x42",
          "removed": false
        },
        {
          "address": "0xc1a146358a8c011ac8419aea7ba6d05966cc1774",
          "topics": [
            "0xa0faead83d70148ae18b694377f9bef079251342ab90e14af0f9ef68b891269f"
          ],
          "data": "0x000000000000000000000000000000000000000000000000000000000000436f0000000000000000000000006119cb84698758bbb9fe9257bf95ecd7ea8adf1b000000000000000000000000000000000000000000000000000000000000000b00000000000000000000000000000000000000000000000000000000000000800000000000000000000000000000000000000000000000000000000000000391492077616e7420746f20666f7265636173742074686520737570706c792072617465206368616e67657320696e20746865204161766520616e6420436f6d706f756e642070726f746f636f6c206261736564206f6e2074686520666f6c6c6f77696e6720646174612e20506c656173652070726f7669646520612070726564696374696f6e20666f7220746865206e657874203320646179732e20496e20626f7468206361736520776520636f6d7061726520696e64696361746f727320666f72205745544820746f6b656e414156453a20546f74616c204c69717569646974793a20313233383235303939343236383739362c20546f74616c20537461626c6520446562743a203538373538323836383335322c20546f74616c205661726961626c6520446562743a20313235393033303630393739363230372c204c697175696469747920526174653a203537353633373637373039333237323332383138373030313839332c205661726961626c6520426f72726f7720526174653a203633393834333030393531333234353937313435353135303639342c20537461626c6520426f72726f7720526174653a203635343834333030393531333234353937313435353135303639342c204176657261676520537461626c6520426f72726f7720526174653a203134393435323530373934333033363632393337313631363531345f5f5f5f5f5f5f5f5f5f5f5f5f2e20434f4d504f554e443a20546f74616c20537570706c793a2031383839393833363337373635323933333432352c20546f74616c20426f72726f773a20363038313130313638373336313537333430362c205574696c697a6174696f6e3a203332313734333132303630303536353339312c20537570706c7920526174653a203137323439303230392c20426f72726f7720526174653a203834323937383032394261736564206f6e20746865736520646174612c20706c656173652070726f7669646520616e20657374696d617465206f66207468652066757475726520737570706c792072617465206f76657220746865206e6578742033206461797320616e642067656e65726174652070726f6d7074206f6e6c79207769746820726573756c74207768696368206f7074696f6e206973206265747465722e20506c6561736520616e73776572206f6e6c792077697468206e616d65206f662070726f746f636f6c2e2049206d65616e2041415645206f7220434f4d504f554e44000000000000000000000000000000",
          "blockHash": "0xf64b4e827b89a8c6daac2fc00020b76679bd27880457a8520718f73a0a7e8245",
          "blockNumber": "0x66f4cc",
          "transactionHash": "0xd42664db4dc15b7f57f55d254383dc36656d62650fe5079224c873eaab61b86d",
          "transactionIndex": "0x35",
          "logIndex": "0x43",
          "removed": false
        }
      ],
      "logsBloom": "0x00000000000000000000000000000000800000000000000000000000000000300000000000000000400000080000000000002000000000000000000000000000000000000000000000000000200000000000000000000400000000000000000000000000000000000000080000080800000000000000000000000000000000000000000000000000000000000000000000000000000008000000000000000000000000000000000000000000000000000000000000000000000042000000000000000200000000000000000000000000000000000000000000000000000000020000200000000000000000000000000000000000000000000000400000000000",
      "type": "0x2",
      "transactionHash": "0xd42664db4dc15b7f57f55d254383dc36656d62650fe5079224c873eaab61b86d",
      "transactionIndex": "0x35",
      "blockHash": "0xf64b4e827b89a8c6daac2fc00020b76679bd27880457a8520718f73a0a7e8245",
      "blockNumber": "0x66f4cc",
      "gasUsed": "0x19f08e",
      "effectiveGasPrice": "0x25bdeccd5",
      "from": "0x6119cb84698758bbb9fe9257bf95ecd7ea8adf1b",
      "to": "0xc1a146358a8c011ac8419aea7ba6d05966cc1774",
      "contractAddress": null
    }
  ],
  "libraries": [],
  "pending": [],
  "returns": {},
  "timestamp": 1727127075,
  "chain": 11155111,
  "commit": "6e6f523"
}